{
  "_format": "hh-sol-artifact-1",
  "contractName": "RicardianLLC",
  "sourceName": "contracts/RicardianLLC.sol",
  "abi": [
    {
      "inputs": [
        {
          "internalType": "address payable",
          "name": "_governance",
          "type": "address"
        },
        {
          "internalType": "string",
          "name": "_commonURI",
          "type": "string"
        },
        {
          "internalType": "string",
          "name": "_masterOperatingAgreement",
          "type": "string"
        }
      ],
      "stateMutability": "nonpayable",
      "type": "constructor"
    },
    {
      "anonymous": false,
      "inputs": [
        {
          "indexed": true,
          "internalType": "address",
          "name": "approver",
          "type": "address"
        },
        {
          "indexed": true,
          "internalType": "address",
          "name": "spender",
          "type": "address"
        },
        {
          "indexed": true,
          "internalType": "uint256",
          "name": "tokenId",
          "type": "uint256"
        }
      ],
      "name": "Approval",
      "type": "event"
    },
    {
      "anonymous": false,
      "inputs": [
        {
          "indexed": true,
          "internalType": "address",
          "name": "approver",
          "type": "address"
        },
        {
          "indexed": true,
          "internalType": "address",
          "name": "operator",
          "type": "address"
        },
        {
          "indexed": false,
          "internalType": "bool",
          "name": "approved",
          "type": "bool"
        }
      ],
      "name": "ApprovalForAll",
      "type": "event"
    },
    {
      "anonymous": false,
      "inputs": [
        {
          "indexed": true,
          "internalType": "address",
          "name": "caller",
          "type": "address"
        },
        {
          "indexed": true,
          "internalType": "uint256",
          "name": "amount",
          "type": "uint256"
        },
        {
          "indexed": false,
          "internalType": "string",
          "name": "details",
          "type": "string"
        }
      ],
      "name": "GovTribute",
      "type": "event"
    },
    {
      "anonymous": false,
      "inputs": [
        {
          "indexed": true,
          "internalType": "address",
          "name": "governance",
          "type": "address"
        },
        {
          "indexed": false,
          "internalType": "string",
          "name": "commonURI",
          "type": "string"
        },
        {
          "indexed": false,
          "internalType": "string",
          "name": "masterOperatingAgreement",
          "type": "string"
        }
      ],
      "name": "GovUpdateSettings",
      "type": "event"
    },
    {
      "anonymous": false,
      "inputs": [
        {
          "indexed": true,
          "internalType": "uint256",
          "name": "tokenId",
          "type": "uint256"
        },
        {
          "indexed": false,
          "internalType": "string",
          "name": "tokenURI",
          "type": "string"
        }
      ],
      "name": "GovUpdateTokenURI",
      "type": "event"
    },
    {
      "anonymous": false,
      "inputs": [
        {
          "indexed": true,
          "internalType": "address",
          "name": "buyer",
          "type": "address"
        },
        {
          "indexed": true,
          "internalType": "uint256",
          "name": "price",
          "type": "uint256"
        },
        {
          "indexed": true,
          "internalType": "uint256",
          "name": "tokenId",
          "type": "uint256"
        }
      ],
      "name": "SetSale",
      "type": "event"
    },
    {
      "anonymous": false,
      "inputs": [
        {
          "indexed": true,
          "internalType": "address",
          "name": "from",
          "type": "address"
        },
        {
          "indexed": true,
          "internalType": "address",
          "name": "to",
          "type": "address"
        },
        {
          "indexed": true,
          "internalType": "uint256",
          "name": "tokenId",
          "type": "uint256"
        }
      ],
      "name": "Transfer",
      "type": "event"
    },
    {
      "anonymous": false,
      "inputs": [
        {
          "indexed": true,
          "internalType": "uint256",
          "name": "tokenId",
          "type": "uint256"
        },
        {
          "indexed": false,
          "internalType": "string",
          "name": "details",
          "type": "string"
        }
      ],
      "name": "UpdateTokenDetails",
      "type": "event"
    },
    {
      "inputs": [
        {
          "internalType": "address",
          "name": "spender",
          "type": "address"
        },
        {
          "internalType": "uint256",
          "name": "tokenId",
          "type": "uint256"
        }
      ],
      "name": "approve",
      "outputs": [],
      "stateMutability": "nonpayable",
      "type": "function"
    },
    {
      "inputs": [
        {
          "internalType": "address",
          "name": "",
          "type": "address"
        }
      ],
      "name": "balanceOf",
      "outputs": [
        {
          "internalType": "uint256",
          "name": "",
          "type": "uint256"
        }
      ],
      "stateMutability": "view",
      "type": "function"
    },
    {
      "inputs": [],
      "name": "commonURI",
      "outputs": [
        {
          "internalType": "string",
          "name": "",
          "type": "string"
        }
      ],
      "stateMutability": "view",
      "type": "function"
    },
    {
      "inputs": [
        {
          "internalType": "uint256",
          "name": "",
          "type": "uint256"
        }
      ],
      "name": "getApproved",
      "outputs": [
        {
          "internalType": "address",
          "name": "",
          "type": "address"
        }
      ],
      "stateMutability": "view",
      "type": "function"
    },
    {
      "inputs": [
        {
          "internalType": "address",
          "name": "from",
          "type": "address"
        },
        {
          "internalType": "address",
          "name": "to",
          "type": "address"
        },
        {
          "internalType": "uint256",
          "name": "tokenId",
          "type": "uint256"
        }
      ],
      "name": "govTransferFrom",
      "outputs": [],
      "stateMutability": "nonpayable",
      "type": "function"
    },
    {
      "inputs": [
        {
          "internalType": "address[]",
          "name": "from",
          "type": "address[]"
        },
        {
          "internalType": "address[]",
          "name": "to",
          "type": "address[]"
        },
        {
          "internalType": "uint256[]",
          "name": "tokenId",
          "type": "uint256[]"
        }
      ],
      "name": "govTransferFromBatch",
      "outputs": [],
      "stateMutability": "nonpayable",
      "type": "function"
    },
    {
      "inputs": [
        {
          "internalType": "string",
          "name": "details",
          "type": "string"
        }
      ],
      "name": "govTribute",
      "outputs": [],
      "stateMutability": "payable",
      "type": "function"
    },
    {
      "inputs": [
        {
          "internalType": "address payable",
          "name": "_governance",
          "type": "address"
        },
        {
          "internalType": "string",
          "name": "_commonURI",
          "type": "string"
        },
        {
          "internalType": "string",
          "name": "_masterOperatingAgreement",
          "type": "string"
        }
      ],
      "name": "govUpdateSettings",
      "outputs": [],
      "stateMutability": "nonpayable",
      "type": "function"
    },
    {
      "inputs": [
        {
          "internalType": "uint256",
          "name": "tokenId",
          "type": "uint256"
        },
        {
          "internalType": "string",
          "name": "_tokenURI",
          "type": "string"
        }
      ],
      "name": "govUpdateTokenURI",
      "outputs": [],
      "stateMutability": "nonpayable",
      "type": "function"
    },
    {
      "inputs": [
        {
          "internalType": "uint256[]",
          "name": "tokenId",
          "type": "uint256[]"
        },
        {
          "internalType": "string[]",
          "name": "_tokenURI",
          "type": "string[]"
        }
      ],
      "name": "govUpdateTokenURIbatch",
      "outputs": [],
      "stateMutability": "nonpayable",
      "type": "function"
    },
    {
      "inputs": [],
      "name": "govWithdrawETH",
      "outputs": [],
      "stateMutability": "nonpayable",
      "type": "function"
    },
    {
      "inputs": [],
      "name": "governance",
      "outputs": [
        {
          "internalType": "address payable",
          "name": "",
          "type": "address"
        }
      ],
      "stateMutability": "view",
      "type": "function"
    },
    {
      "inputs": [
        {
          "internalType": "address",
          "name": "",
          "type": "address"
        },
        {
          "internalType": "address",
          "name": "",
          "type": "address"
        }
      ],
      "name": "isApprovedForAll",
      "outputs": [
        {
          "internalType": "bool",
          "name": "",
          "type": "bool"
        }
      ],
      "stateMutability": "view",
      "type": "function"
    },
    {
      "inputs": [],
      "name": "masterOperatingAgreement",
      "outputs": [
        {
          "internalType": "string",
          "name": "",
          "type": "string"
        }
      ],
      "stateMutability": "view",
      "type": "function"
    },
    {
      "inputs": [
        {
          "internalType": "address",
          "name": "to",
          "type": "address"
        }
      ],
      "name": "mintLLC",
      "outputs": [],
      "stateMutability": "payable",
      "type": "function"
    },
    {
      "inputs": [
        {
          "internalType": "address[]",
          "name": "to",
          "type": "address[]"
        }
      ],
      "name": "mintLLCbatch",
      "outputs": [],
      "stateMutability": "payable",
      "type": "function"
    },
    {
      "inputs": [],
      "name": "name",
      "outputs": [
        {
          "internalType": "string",
          "name": "",
          "type": "string"
        }
      ],
      "stateMutability": "view",
      "type": "function"
    },
    {
      "inputs": [
        {
          "internalType": "uint256",
          "name": "",
          "type": "uint256"
        }
      ],
      "name": "ownerOf",
      "outputs": [
        {
          "internalType": "address",
          "name": "",
          "type": "address"
        }
      ],
      "stateMutability": "view",
      "type": "function"
    },
    {
      "inputs": [
        {
          "internalType": "uint256",
          "name": "tokenId",
          "type": "uint256"
        }
      ],
      "name": "purchase",
      "outputs": [],
      "stateMutability": "payable",
      "type": "function"
    },
    {
      "inputs": [
        {
          "internalType": "uint256",
          "name": "",
          "type": "uint256"
        }
      ],
      "name": "sale",
      "outputs": [
        {
          "internalType": "address",
          "name": "buyer",
          "type": "address"
        },
        {
          "internalType": "uint256",
          "name": "price",
          "type": "uint256"
        }
      ],
      "stateMutability": "view",
      "type": "function"
    },
    {
      "inputs": [
        {
          "internalType": "address",
          "name": "operator",
          "type": "address"
        },
        {
          "internalType": "bool",
          "name": "approved",
          "type": "bool"
        }
      ],
      "name": "setApprovalForAll",
      "outputs": [],
      "stateMutability": "nonpayable",
      "type": "function"
    },
    {
      "inputs": [
        {
          "internalType": "address",
          "name": "buyer",
          "type": "address"
        },
        {
          "internalType": "uint256",
          "name": "price",
          "type": "uint256"
        },
        {
          "internalType": "uint256",
          "name": "tokenId",
          "type": "uint256"
        }
      ],
      "name": "setSale",
      "outputs": [],
      "stateMutability": "nonpayable",
      "type": "function"
    },
    {
      "inputs": [
        {
          "internalType": "bytes4",
          "name": "",
          "type": "bytes4"
        }
      ],
      "name": "supportsInterface",
      "outputs": [
        {
          "internalType": "bool",
          "name": "",
          "type": "bool"
        }
      ],
      "stateMutability": "view",
      "type": "function"
    },
    {
      "inputs": [],
      "name": "symbol",
      "outputs": [
        {
          "internalType": "string",
          "name": "",
          "type": "string"
        }
      ],
      "stateMutability": "view",
      "type": "function"
    },
    {
      "inputs": [
        {
          "internalType": "uint256",
          "name": "",
          "type": "uint256"
        }
      ],
      "name": "tokenDetails",
      "outputs": [
        {
          "internalType": "string",
          "name": "",
          "type": "string"
        }
      ],
      "stateMutability": "view",
      "type": "function"
    },
    {
      "inputs": [
        {
          "internalType": "uint256",
          "name": "",
          "type": "uint256"
        }
      ],
      "name": "tokenURI",
      "outputs": [
        {
          "internalType": "string",
          "name": "",
          "type": "string"
        }
      ],
      "stateMutability": "view",
      "type": "function"
    },
    {
      "inputs": [],
      "name": "totalSupply",
      "outputs": [
        {
          "internalType": "uint256",
          "name": "",
          "type": "uint256"
        }
      ],
      "stateMutability": "view",
      "type": "function"
    },
    {
      "inputs": [
        {
          "internalType": "address",
          "name": "to",
          "type": "address"
        },
        {
          "internalType": "uint256",
          "name": "tokenId",
          "type": "uint256"
        }
      ],
      "name": "transfer",
      "outputs": [
        {
          "internalType": "bool",
          "name": "",
          "type": "bool"
        }
      ],
      "stateMutability": "nonpayable",
      "type": "function"
    },
    {
      "inputs": [
        {
          "internalType": "address",
          "name": "from",
          "type": "address"
        },
        {
          "internalType": "address",
          "name": "to",
          "type": "address"
        },
        {
          "internalType": "uint256",
          "name": "tokenId",
          "type": "uint256"
        }
      ],
      "name": "transferFrom",
      "outputs": [],
      "stateMutability": "nonpayable",
      "type": "function"
    },
    {
      "inputs": [
        {
          "internalType": "address[]",
          "name": "from",
          "type": "address[]"
        },
        {
          "internalType": "address[]",
          "name": "to",
          "type": "address[]"
        },
        {
          "internalType": "uint256[]",
          "name": "tokenId",
          "type": "uint256[]"
        }
      ],
      "name": "transferFromBatch",
      "outputs": [],
      "stateMutability": "nonpayable",
      "type": "function"
    },
    {
      "inputs": [
        {
          "internalType": "uint256",
          "name": "tokenId",
          "type": "uint256"
        },
        {
          "internalType": "string",
          "name": "details",
          "type": "string"
        }
      ],
      "name": "updateTokenDetails",
      "outputs": [],
      "stateMutability": "nonpayable",
      "type": "function"
    },
    {
      "stateMutability": "payable",
      "type": "receive"
    }
  ],
  "bytecode": "0x60806040523480156200001157600080fd5b5060405162003e6038038062003e6083398181016040528101906200003791906200028f565b826000806101000a81548173ffffffffffffffffffffffffffffffffffffffff021916908373ffffffffffffffffffffffffffffffffffffffff16021790555081600290805190602001906200008f92919062000156565b508060039080519060200190620000a892919062000156565b506001600a60006380ac58cd60e01b7bffffffffffffffffffffffffffffffffffffffffffffffffffffffff1916815260200190815260200160002060006101000a81548160ff0219169083151502179055506001600a6000635b5e139f60e01b7bffffffffffffffffffffffffffffffffffffffffffffffffffffffff1916815260200190815260200160002060006101000a81548160ff021916908315150217905550505050620004d5565b8280546200016490620003e0565b90600052602060002090601f016020900481019282620001885760008555620001d4565b82601f10620001a357805160ff1916838001178555620001d4565b82800160010185558215620001d4579182015b82811115620001d3578251825591602001919060010190620001b6565b5b509050620001e39190620001e7565b5090565b5b8082111562000202576000816000905550600101620001e8565b5090565b60006200021d620002178462000340565b62000317565b9050828152602081018484840111156200023657600080fd5b62000243848285620003aa565b509392505050565b6000815190506200025c81620004bb565b92915050565b600082601f8301126200027457600080fd5b81516200028684826020860162000206565b91505092915050565b600080600060608486031215620002a557600080fd5b6000620002b5868287016200024b565b935050602084015167ffffffffffffffff811115620002d357600080fd5b620002e18682870162000262565b925050604084015167ffffffffffffffff811115620002ff57600080fd5b6200030d8682870162000262565b9150509250925092565b60006200032362000336565b905062000331828262000416565b919050565b6000604051905090565b600067ffffffffffffffff8211156200035e576200035d6200047b565b5b6200036982620004aa565b9050602081019050919050565b600062000383826200038a565b9050919050565b600073ffffffffffffffffffffffffffffffffffffffff82169050919050565b60005b83811015620003ca578082015181840152602081019050620003ad565b83811115620003da576000848401525b50505050565b60006002820490506001821680620003f957607f821691505b6020821081141562000410576200040f6200044c565b5b50919050565b6200042182620004aa565b810181811067ffffffffffffffff821117156200044357620004426200047b565b5b80604052505050565b7f4e487b7100000000000000000000000000000000000000000000000000000000600052602260045260246000fd5b7f4e487b7100000000000000000000000000000000000000000000000000000000600052604160045260246000fd5b6000601f19601f8301169050919050565b620004c68162000376565b8114620004d257600080fd5b50565b61397b80620004e56000396000f3fe6080604052600436106101dc5760003560e01c80638d40fb4e11610102578063c87b56dd11610095578063e985e9c511610064578063e985e9c5146106b1578063efef39a1146106ee578063f45441951461070a578063fc314e3114610726576101ec565b8063c87b56dd146105f9578063d909a23214610636578063dee27b231461065f578063e290914914610688576101ec565b8063a22cb465116100d1578063a22cb46514610541578063a9059cbb1461056a578063ba1b7e76146105a7578063ba4f7bf5146105d0576101ec565b80638d40fb4e1461048457806393c28b4e146104af57806395d89b41146104d85780639603270214610503576101ec565b806323b872dd1161017a5780636352211e116101495780636352211e146103d75780636f0a5e711461041457806370a08231146104305780637ee269061461046d576101ec565b806323b872dd1461032f5780632a6cd9c6146103585780634c33ad09146103835780635aa6e675146103ac576101ec565b8063081812fc116101b6578063081812fc14610282578063095ea7b3146102bf578063130a24d0146102e857806318160ddd14610304576101ec565b806301ffc9a7146101f15780630324f5731461022e57806306fdde0314610257576101ec565b366101ec576101ea33610763565b005b600080fd5b3480156101fd57600080fd5b5061021860048036038101906102139190612ef2565b6108b6565b604051610225919061329b565b60405180910390f35b34801561023a57600080fd5b5061025560048036038101906102509190612f89565b6108d6565b005b34801561026357600080fd5b5061026c610a0b565b6040516102799190613315565b60405180910390f35b34801561028e57600080fd5b506102a960048036038101906102a49190612f60565b610a44565b6040516102b6919061323c565b60405180910390f35b3480156102cb57600080fd5b506102e660048036038101906102e19190612d09565b610a77565b005b61030260048036038101906102fd9190612f1b565b610c60565b005b34801561031057600080fd5b50610319610cb5565b6040516103269190613497565b60405180910390f35b34801561033b57600080fd5b5061035660048036038101906103519190612c7e565b610cbb565b005b34801561036457600080fd5b5061036d610e33565b60405161037a9190613315565b60405180910390f35b34801561038f57600080fd5b506103aa60048036038101906103a59190612bb9565b610ec1565b005b3480156103b857600080fd5b506103c161100e565b6040516103ce9190613257565b60405180910390f35b3480156103e357600080fd5b506103fe60048036038101906103f99190612f60565b611032565b60405161040b919061323c565b60405180910390f35b61042e60048036038101906104299190612b90565b611065565b005b34801561043c57600080fd5b5061045760048036038101906104529190612b90565b611071565b6040516104649190613497565b60405180910390f35b34801561047957600080fd5b50610482611089565b005b34801561049057600080fd5b506104996111c6565b6040516104a69190613315565b60405180910390f35b3480156104bb57600080fd5b506104d660048036038101906104d19190612e7d565b611254565b005b3480156104e457600080fd5b506104ed611543565b6040516104fa9190613315565b60405180910390f35b34801561050f57600080fd5b5061052a60048036038101906105259190612f60565b61157c565b604051610538929190613272565b60405180910390f35b34801561054d57600080fd5b5061056860048036038101906105639190612ccd565b6115c0565b005b34801561057657600080fd5b50610591600480360381019061058c9190612d09565b6116bd565b60405161059e919061329b565b60405180910390f35b3480156105b357600080fd5b506105ce60048036038101906105c99190612dd9565b6116d4565b005b3480156105dc57600080fd5b506105f760048036038101906105f29190612d45565b611a7c565b005b34801561060557600080fd5b50610620600480360381019061061b9190612f60565b611bd7565b60405161062d9190613315565b60405180910390f35b34801561064257600080fd5b5061065d60048036038101906106589190612f89565b611c77565b005b34801561066b57600080fd5b5061068660048036038101906106819190612c7e565b611d7a565b005b34801561069457600080fd5b506106af60048036038101906106aa9190612dd9565b611e18565b005b3480156106bd57600080fd5b506106d860048036038101906106d39190612c42565b61200d565b6040516106e5919061329b565b60405180910390f35b61070860048036038101906107039190612f60565b61203c565b005b610724600480360381019061071f9190612d94565b6124f1565b005b34801561073257600080fd5b5061074d60048036038101906107489190612f60565b61256d565b60405161075a9190613315565b60405180910390f35b6001600081548092919061077690613654565b919050555060006001549050600460008373ffffffffffffffffffffffffffffffffffffffff1673ffffffffffffffffffffffffffffffffffffffff16815260200190815260200160002060008154809291906107d290613654565b9190505550816006600083815260200190815260200160002060006101000a81548173ffffffffffffffffffffffffffffffffffffffff021916908373ffffffffffffffffffffffffffffffffffffffff16021790555060026008600083815260200190815260200160002090805461084a90613622565b6108559291906128cf565b50808273ffffffffffffffffffffffffffffffffffffffff16600073ffffffffffffffffffffffffffffffffffffffff167fddf252ad1be2c89b69c2b068fc378daa952ba7f163c4a11628f55a4df523b3ef60405160405180910390a45050565b600a6020528060005260406000206000915054906101000a900460ff1681565b60008054906101000a900473ffffffffffffffffffffffffffffffffffffffff1673ffffffffffffffffffffffffffffffffffffffff163373ffffffffffffffffffffffffffffffffffffffff1614610964576040517f08c379a000000000000000000000000000000000000000000000000000000000815260040161095b90613357565b60405180910390fd5b6001548311156109a9576040517f08c379a00000000000000000000000000000000000000000000000000000000081526004016109a090613337565b60405180910390fd5b81816008600086815260200190815260200160002091906109cb92919061295c565b50827f4cdfc71a0d579e660ee83f238118805d0f55776fad9266566710fd55ce7c3b9583836040516109fe9291906132b6565b60405180910390a2505050565b6040518060400160405280601581526020017f52696361726469616e204c4c432c20536572696573000000000000000000000081525081565b60056020528060005260406000206000915054906101000a900473ffffffffffffffffffffffffffffffffffffffff1681565b60006006600083815260200190815260200160002060009054906101000a900473ffffffffffffffffffffffffffffffffffffffff1690508073ffffffffffffffffffffffffffffffffffffffff163373ffffffffffffffffffffffffffffffffffffffff161480610b6f5750600b60008273ffffffffffffffffffffffffffffffffffffffff1673ffffffffffffffffffffffffffffffffffffffff16815260200190815260200160002060003373ffffffffffffffffffffffffffffffffffffffff1673ffffffffffffffffffffffffffffffffffffffff16815260200190815260200160002060009054906101000a900460ff165b610bae576040517f08c379a0000000000000000000000000000000000000000000000000000000008152600401610ba590613417565b60405180910390fd5b826005600084815260200190815260200160002060006101000a81548173ffffffffffffffffffffffffffffffffffffffff021916908373ffffffffffffffffffffffffffffffffffffffff160217905550818373ffffffffffffffffffffffffffffffffffffffff163373ffffffffffffffffffffffffffffffffffffffff167f8c5be1e5ebec7d5bd14f71427d1e84f3dd0314c0f7b2291e5b200ac8c7c3b92560405160405180910390a4505050565b343373ffffffffffffffffffffffffffffffffffffffff167fdfe575b06e24e8835728ecea05ff140e1fb1ebf9967ca2b41638a35355460d6e8484604051610ca99291906132b6565b60405180910390a35050565b60015481565b8273ffffffffffffffffffffffffffffffffffffffff163373ffffffffffffffffffffffffffffffffffffffff161480610d5357503373ffffffffffffffffffffffffffffffffffffffff166005600083815260200190815260200160002060009054906101000a900473ffffffffffffffffffffffffffffffffffffffff1673ffffffffffffffffffffffffffffffffffffffff16145b80610de45750600b60008473ffffffffffffffffffffffffffffffffffffffff1673ffffffffffffffffffffffffffffffffffffffff16815260200190815260200160002060003373ffffffffffffffffffffffffffffffffffffffff1673ffffffffffffffffffffffffffffffffffffffff16815260200190815260200160002060009054906101000a900460ff165b610e23576040517f08c379a0000000000000000000000000000000000000000000000000000000008152600401610e1a90613397565b60405180910390fd5b610e2e83838361260d565b505050565b60038054610e4090613622565b80601f0160208091040260200160405190810160405280929190818152602001828054610e6c90613622565b8015610eb95780601f10610e8e57610100808354040283529160200191610eb9565b820191906000526020600020905b815481529060010190602001808311610e9c57829003601f168201915b505050505081565b60008054906101000a900473ffffffffffffffffffffffffffffffffffffffff1673ffffffffffffffffffffffffffffffffffffffff163373ffffffffffffffffffffffffffffffffffffffff1614610f4f576040517f08c379a0000000000000000000000000000000000000000000000000000000008152600401610f4690613357565b60405180910390fd5b846000806101000a81548173ffffffffffffffffffffffffffffffffffffffff021916908373ffffffffffffffffffffffffffffffffffffffff160217905550838360029190610fa092919061295c565b50818160039190610fb292919061295c565b508473ffffffffffffffffffffffffffffffffffffffff167f5175904259f916995b56da84eee87b787517f6afddcc801184a1b96f880e609585858585604051610fff94939291906132da565b60405180910390a25050505050565b60008054906101000a900473ffffffffffffffffffffffffffffffffffffffff1681565b60066020528060005260406000206000915054906101000a900473ffffffffffffffffffffffffffffffffffffffff1681565b61106e81610763565b50565b60046020528060005260406000206000915090505481565b60008054906101000a900473ffffffffffffffffffffffffffffffffffffffff1673ffffffffffffffffffffffffffffffffffffffff163373ffffffffffffffffffffffffffffffffffffffff1614611117576040517f08c379a000000000000000000000000000000000000000000000000000000000815260040161110e90613357565b60405180910390fd5b60003373ffffffffffffffffffffffffffffffffffffffff164760405161113d90613227565b60006040518083038185875af1925050503d806000811461117a576040519150601f19603f3d011682016040523d82523d6000602084013e61117f565b606091505b50509050806111c3576040517f08c379a00000000000000000000000000000000000000000000000000000000081526004016111ba90613377565b60405180910390fd5b50565b600280546111d390613622565b80601f01602080910402602001604051908101604052809291908181526020018280546111ff90613622565b801561124c5780601f106112215761010080835404028352916020019161124c565b820191906000526020600020905b81548152906001019060200180831161122f57829003601f168201915b505050505081565b60008054906101000a900473ffffffffffffffffffffffffffffffffffffffff1673ffffffffffffffffffffffffffffffffffffffff163373ffffffffffffffffffffffffffffffffffffffff16146112e2576040517f08c379a00000000000000000000000000000000000000000000000000000000081526004016112d990613357565b60405180910390fd5b81819050848490501461132a576040517f08c379a0000000000000000000000000000000000000000000000000000000008152600401611321906133d7565b60405180910390fd5b60005b8484905081101561153c57600154858583818110611374577f4e487b7100000000000000000000000000000000000000000000000000000000600052603260045260246000fd5b9050602002013511156113bc576040517f08c379a00000000000000000000000000000000000000000000000000000000081526004016113b390613337565b60405180910390fd5b8282828181106113f5577f4e487b7100000000000000000000000000000000000000000000000000000000600052603260045260246000fd5b905060200281019061140791906134b2565b60086000888886818110611444577f4e487b7100000000000000000000000000000000000000000000000000000000600052603260045260246000fd5b905060200201358152602001908152602001600020919061146692919061295c565b508484828181106114a0577f4e487b7100000000000000000000000000000000000000000000000000000000600052603260045260246000fd5b905060200201357f4cdfc71a0d579e660ee83f238118805d0f55776fad9266566710fd55ce7c3b95848484818110611501577f4e487b7100000000000000000000000000000000000000000000000000000000600052603260045260246000fd5b905060200281019061151391906134b2565b6040516115219291906132b6565b60405180910390a2808061153490613654565b91505061132d565b5050505050565b6040518060400160405280600381526020017f4c4c43000000000000000000000000000000000000000000000000000000000081525081565b60096020528060005260406000206000915090508060000160009054906101000a900473ffffffffffffffffffffffffffffffffffffffff16908060010154905082565b80600b60003373ffffffffffffffffffffffffffffffffffffffff1673ffffffffffffffffffffffffffffffffffffffff16815260200190815260200160002060008473ffffffffffffffffffffffffffffffffffffffff1673ffffffffffffffffffffffffffffffffffffffff16815260200190815260200160002060006101000a81548160ff0219169083151502179055508173ffffffffffffffffffffffffffffffffffffffff163373ffffffffffffffffffffffffffffffffffffffff167f17307eab39ab6107e8899845ad3d59bd9653f200f220920489ca2b5937696c31836040516116b1919061329b565b60405180910390a35050565b60006116ca33848461260d565b6001905092915050565b83839050868690501480156116ee57508181905084849050145b61172d576040517f08c379a0000000000000000000000000000000000000000000000000000000008152600401611724906133b7565b60405180910390fd5b60005b86869050811015611a7357868682818110611774577f4e487b7100000000000000000000000000000000000000000000000000000000600052603260045260246000fd5b90506020020160208101906117899190612b90565b73ffffffffffffffffffffffffffffffffffffffff163373ffffffffffffffffffffffffffffffffffffffff16148061185f57503373ffffffffffffffffffffffffffffffffffffffff1660056000858585818110611811577f4e487b7100000000000000000000000000000000000000000000000000000000600052603260045260246000fd5b90506020020135815260200190815260200160002060009054906101000a900473ffffffffffffffffffffffffffffffffffffffff1673ffffffffffffffffffffffffffffffffffffffff16145b8061193d5750600b60008888848181106118a2577f4e487b7100000000000000000000000000000000000000000000000000000000600052603260045260246000fd5b90506020020160208101906118b79190612b90565b73ffffffffffffffffffffffffffffffffffffffff1673ffffffffffffffffffffffffffffffffffffffff16815260200190815260200160002060003373ffffffffffffffffffffffffffffffffffffffff1673ffffffffffffffffffffffffffffffffffffffff16815260200190815260200160002060009054906101000a900460ff165b61197c576040517f08c379a000000000000000000000000000000000000000000000000000000000815260040161197390613397565b60405180910390fd5b611a608787838181106119b8577f4e487b7100000000000000000000000000000000000000000000000000000000600052603260045260246000fd5b90506020020160208101906119cd9190612b90565b868684818110611a06577f4e487b7100000000000000000000000000000000000000000000000000000000600052603260045260246000fd5b9050602002016020810190611a1b9190612b90565b858585818110611a54577f4e487b7100000000000000000000000000000000000000000000000000000000600052603260045260246000fd5b9050602002013561260d565b8080611a6b90613654565b915050611730565b50505050505050565b6006600082815260200190815260200160002060009054906101000a900473ffffffffffffffffffffffffffffffffffffffff1673ffffffffffffffffffffffffffffffffffffffff163373ffffffffffffffffffffffffffffffffffffffff1614611b1d576040517f08c379a0000000000000000000000000000000000000000000000000000000008152600401611b1490613477565b60405180910390fd5b826009600083815260200190815260200160002060000160006101000a81548173ffffffffffffffffffffffffffffffffffffffff021916908373ffffffffffffffffffffffffffffffffffffffff16021790555081600960008381526020019081526020016000206001018190555080828473ffffffffffffffffffffffffffffffffffffffff167f147f7de18d78c3f592ed37466fac3fec4dc48986da32e527ba838d19da7bb30360405160405180910390a4505050565b60086020528060005260406000206000915090508054611bf690613622565b80601f0160208091040260200160405190810160405280929190818152602001828054611c2290613622565b8015611c6f5780601f10611c4457610100808354040283529160200191611c6f565b820191906000526020600020905b815481529060010190602001808311611c5257829003601f168201915b505050505081565b6006600084815260200190815260200160002060009054906101000a900473ffffffffffffffffffffffffffffffffffffffff1673ffffffffffffffffffffffffffffffffffffffff163373ffffffffffffffffffffffffffffffffffffffff1614611d18576040517f08c379a0000000000000000000000000000000000000000000000000000000008152600401611d0f90613477565b60405180910390fd5b8181600760008681526020019081526020016000209190611d3a92919061295c565b50827fc0ac79b49ed40424b5c56dc589c3d492986a2bffd7935ba49ef2d3d0993bee518383604051611d6d9291906132b6565b60405180910390a2505050565b60008054906101000a900473ffffffffffffffffffffffffffffffffffffffff1673ffffffffffffffffffffffffffffffffffffffff163373ffffffffffffffffffffffffffffffffffffffff1614611e08576040517f08c379a0000000000000000000000000000000000000000000000000000000008152600401611dff90613357565b60405180910390fd5b611e1383838361260d565b505050565b60008054906101000a900473ffffffffffffffffffffffffffffffffffffffff1673ffffffffffffffffffffffffffffffffffffffff163373ffffffffffffffffffffffffffffffffffffffff1614611ea6576040517f08c379a0000000000000000000000000000000000000000000000000000000008152600401611e9d90613357565b60405180910390fd5b8383905086869050148015611ec057508181905084849050145b611eff576040517f08c379a0000000000000000000000000000000000000000000000000000000008152600401611ef6906133b7565b60405180910390fd5b60005b8686905081101561200457611ff1878783818110611f49577f4e487b7100000000000000000000000000000000000000000000000000000000600052603260045260246000fd5b9050602002016020810190611f5e9190612b90565b868684818110611f97577f4e487b7100000000000000000000000000000000000000000000000000000000600052603260045260246000fd5b9050602002016020810190611fac9190612b90565b858585818110611fe5577f4e487b7100000000000000000000000000000000000000000000000000000000600052603260045260246000fd5b9050602002013561260d565b8080611ffc90613654565b915050611f02565b50505050505050565b600b6020528160005260406000206020528060005260406000206000915091509054906101000a900460ff1681565b600073ffffffffffffffffffffffffffffffffffffffff166009600083815260200190815260200160002060000160009054906101000a900473ffffffffffffffffffffffffffffffffffffffff1673ffffffffffffffffffffffffffffffffffffffff161461214b576009600082815260200190815260200160002060000160009054906101000a900473ffffffffffffffffffffffffffffffffffffffff1673ffffffffffffffffffffffffffffffffffffffff163373ffffffffffffffffffffffffffffffffffffffff161461214a576040517f08c379a000000000000000000000000000000000000000000000000000000000815260040161214190613457565b60405180910390fd5b5b600060096000838152602001908152602001600020600101549050600081116121a9576040517f08c379a00000000000000000000000000000000000000000000000000000000081526004016121a090613437565b60405180910390fd5b8034146121eb576040517f08c379a00000000000000000000000000000000000000000000000000000000081526004016121e2906133f7565b60405180910390fd5b60006006600084815260200190815260200160002060009054906101000a900473ffffffffffffffffffffffffffffffffffffffff16905060008173ffffffffffffffffffffffffffffffffffffffff163460405161224990613227565b60006040518083038185875af1925050503d8060008114612286576040519150601f19603f3d011682016040523d82523d6000602084013e61228b565b606091505b50509050806122cf576040517f08c379a00000000000000000000000000000000000000000000000000000000081526004016122c690613377565b60405180910390fd5b600460008373ffffffffffffffffffffffffffffffffffffffff1673ffffffffffffffffffffffffffffffffffffffff168152602001908152602001600020600081548092919061231f906135f8565b9190505550600460003373ffffffffffffffffffffffffffffffffffffffff1673ffffffffffffffffffffffffffffffffffffffff168152602001908152602001600020600081548092919061237490613654565b919050555060006005600086815260200190815260200160002060006101000a81548173ffffffffffffffffffffffffffffffffffffffff021916908373ffffffffffffffffffffffffffffffffffffffff160217905550336006600086815260200190815260200160002060006101000a81548173ffffffffffffffffffffffffffffffffffffffff021916908373ffffffffffffffffffffffffffffffffffffffff16021790555060006009600086815260200190815260200160002060000160006101000a81548173ffffffffffffffffffffffffffffffffffffffff021916908373ffffffffffffffffffffffffffffffffffffffff16021790555060006009600086815260200190815260200160002060010181905550833373ffffffffffffffffffffffffffffffffffffffff168373ffffffffffffffffffffffffffffffffffffffff167fddf252ad1be2c89b69c2b068fc378daa952ba7f163c4a11628f55a4df523b3ef60405160405180910390a450505050565b60005b828290508110156125685761255583838381811061253b577f4e487b7100000000000000000000000000000000000000000000000000000000600052603260045260246000fd5b90506020020160208101906125509190612b90565b610763565b808061256090613654565b9150506124f4565b505050565b6007602052806000526040600020600091509050805461258c90613622565b80601f01602080910402602001604051908101604052809291908181526020018280546125b890613622565b80156126055780601f106125da57610100808354040283529160200191612605565b820191906000526020600020905b8154815290600101906020018083116125e857829003601f168201915b505050505081565b6006600082815260200190815260200160002060009054906101000a900473ffffffffffffffffffffffffffffffffffffffff1673ffffffffffffffffffffffffffffffffffffffff168373ffffffffffffffffffffffffffffffffffffffff16146126ae576040517f08c379a00000000000000000000000000000000000000000000000000000000081526004016126a590613477565b60405180910390fd5b600460008473ffffffffffffffffffffffffffffffffffffffff1673ffffffffffffffffffffffffffffffffffffffff16815260200190815260200160002060008154809291906126fe906135f8565b9190505550600460008373ffffffffffffffffffffffffffffffffffffffff1673ffffffffffffffffffffffffffffffffffffffff168152602001908152602001600020600081548092919061275390613654565b919050555060006005600083815260200190815260200160002060006101000a81548173ffffffffffffffffffffffffffffffffffffffff021916908373ffffffffffffffffffffffffffffffffffffffff160217905550816006600083815260200190815260200160002060006101000a81548173ffffffffffffffffffffffffffffffffffffffff021916908373ffffffffffffffffffffffffffffffffffffffff16021790555060006009600083815260200190815260200160002060000160006101000a81548173ffffffffffffffffffffffffffffffffffffffff021916908373ffffffffffffffffffffffffffffffffffffffff16021790555060006009600083815260200190815260200160002060010181905550808273ffffffffffffffffffffffffffffffffffffffff168473ffffffffffffffffffffffffffffffffffffffff167fddf252ad1be2c89b69c2b068fc378daa952ba7f163c4a11628f55a4df523b3ef60405160405180910390a4505050565b8280546128db90613622565b90600052602060002090601f0160209004810192826128fd576000855561294b565b82601f1061290e578054855561294b565b8280016001018555821561294b57600052602060002091601f016020900482015b8281111561294a57825482559160010191906001019061292f565b5b50905061295891906129e2565b5090565b82805461296890613622565b90600052602060002090601f01602090048101928261298a57600085556129d1565b82601f106129a357803560ff19168380011785556129d1565b828001600101855582156129d1579182015b828111156129d05782358255916020019190600101906129b5565b5b5090506129de91906129e2565b5090565b5b808211156129fb5760008160009055506001016129e3565b5090565b600081359050612a0e816138d2565b92915050565b600081359050612a23816138e9565b92915050565b60008083601f840112612a3b57600080fd5b8235905067ffffffffffffffff811115612a5457600080fd5b602083019150836020820283011115612a6c57600080fd5b9250929050565b60008083601f840112612a8557600080fd5b8235905067ffffffffffffffff811115612a9e57600080fd5b602083019150836020820283011115612ab657600080fd5b9250929050565b60008083601f840112612acf57600080fd5b8235905067ffffffffffffffff811115612ae857600080fd5b602083019150836020820283011115612b0057600080fd5b9250929050565b600081359050612b1681613900565b92915050565b600081359050612b2b81613917565b92915050565b60008083601f840112612b4357600080fd5b8235905067ffffffffffffffff811115612b5c57600080fd5b602083019150836001820283011115612b7457600080fd5b9250929050565b600081359050612b8a8161392e565b92915050565b600060208284031215612ba257600080fd5b6000612bb0848285016129ff565b91505092915050565b600080600080600060608688031215612bd157600080fd5b6000612bdf88828901612a14565b955050602086013567ffffffffffffffff811115612bfc57600080fd5b612c0888828901612b31565b9450945050604086013567ffffffffffffffff811115612c2757600080fd5b612c3388828901612b31565b92509250509295509295909350565b60008060408385031215612c5557600080fd5b6000612c63858286016129ff565b9250506020612c74858286016129ff565b9150509250929050565b600080600060608486031215612c9357600080fd5b6000612ca1868287016129ff565b9350506020612cb2868287016129ff565b9250506040612cc386828701612b7b565b9150509250925092565b60008060408385031215612ce057600080fd5b6000612cee858286016129ff565b9250506020612cff85828601612b07565b9150509250929050565b60008060408385031215612d1c57600080fd5b6000612d2a858286016129ff565b9250506020612d3b85828601612b7b565b9150509250929050565b600080600060608486031215612d5a57600080fd5b6000612d68868287016129ff565b9350506020612d7986828701612b7b565b9250506040612d8a86828701612b7b565b9150509250925092565b60008060208385031215612da757600080fd5b600083013567ffffffffffffffff811115612dc157600080fd5b612dcd85828601612a29565b92509250509250929050565b60008060008060008060608789031215612df257600080fd5b600087013567ffffffffffffffff811115612e0c57600080fd5b612e1889828a01612a29565b9650965050602087013567ffffffffffffffff811115612e3757600080fd5b612e4389828a01612a29565b9450945050604087013567ffffffffffffffff811115612e6257600080fd5b612e6e89828a01612abd565b92509250509295509295509295565b60008060008060408587031215612e9357600080fd5b600085013567ffffffffffffffff811115612ead57600080fd5b612eb987828801612abd565b9450945050602085013567ffffffffffffffff811115612ed857600080fd5b612ee487828801612a73565b925092505092959194509250565b600060208284031215612f0457600080fd5b6000612f1284828501612b1c565b91505092915050565b60008060208385031215612f2e57600080fd5b600083013567ffffffffffffffff811115612f4857600080fd5b612f5485828601612b31565b92509250509250929050565b600060208284031215612f7257600080fd5b6000612f8084828501612b7b565b91505092915050565b600080600060408486031215612f9e57600080fd5b6000612fac86828701612b7b565b935050602084013567ffffffffffffffff811115612fc957600080fd5b612fd586828701612b31565b92509250509250925092565b612fea81613542565b82525050565b612ff981613530565b82525050565b61300881613554565b82525050565b600061301a838561351f565b93506130278385846135b6565b613030836136fb565b840190509392505050565b600061304682613509565b613050818561351f565b93506130608185602086016135c5565b613069816136fb565b840191505092915050565b600061308160068361351f565b915061308c8261370c565b602082019050919050565b60006130a4600b8361351f565b91506130af82613735565b602082019050919050565b60006130c760088361351f565b91506130d28261375e565b602082019050919050565b60006130ea60178361351f565b91506130f582613787565b602082019050919050565b600061310d60108361351f565b9150613118826137b0565b602082019050919050565b600061313060128361351f565b915061313b826137d9565b602082019050919050565b6000613153600083613514565b915061315e82613802565b600082019050919050565b600061317660068361351f565b915061318182613805565b602082019050919050565b6000613199600f8361351f565b91506131a48261382e565b602082019050919050565b60006131bc60088361351f565b91506131c782613857565b602082019050919050565b60006131df60068361351f565b91506131ea82613880565b602082019050919050565b600061320260068361351f565b915061320d826138a9565b602082019050919050565b613221816135ac565b82525050565b600061323282613146565b9150819050919050565b60006020820190506132516000830184612ff0565b92915050565b600060208201905061326c6000830184612fe1565b92915050565b60006040820190506132876000830185612ff0565b6132946020830184613218565b9392505050565b60006020820190506132b06000830184612fff565b92915050565b600060208201905081810360008301526132d181848661300e565b90509392505050565b600060408201905081810360008301526132f581868861300e565b9050818103602083015261330a81848661300e565b905095945050505050565b6000602082019050818103600083015261332f818461303b565b905092915050565b6000602082019050818103600083015261335081613074565b9050919050565b6000602082019050818103600083015261337081613097565b9050919050565b60006020820190508181036000830152613390816130ba565b9050919050565b600060208201905081810360008301526133b0816130dd565b9050919050565b600060208201905081810360008301526133d081613100565b9050919050565b600060208201905081810360008301526133f081613123565b9050919050565b6000602082019050818103600083015261341081613169565b9050919050565b600060208201905081810360008301526134308161318c565b9050919050565b60006020820190508181036000830152613450816131af565b9050919050565b60006020820190508181036000830152613470816131d2565b9050919050565b60006020820190508181036000830152613490816131f5565b9050919050565b60006020820190506134ac6000830184613218565b92915050565b600080833560016020038436030381126134cb57600080fd5b80840192508235915067ffffffffffffffff8211156134e957600080fd5b60208301925060018202360383131561350157600080fd5b509250929050565b600081519050919050565b600081905092915050565b600082825260208201905092915050565b600061353b8261358c565b9050919050565b600061354d8261358c565b9050919050565b60008115159050919050565b60007fffffffff0000000000000000000000000000000000000000000000000000000082169050919050565b600073ffffffffffffffffffffffffffffffffffffffff82169050919050565b6000819050919050565b82818337600083830152505050565b60005b838110156135e35780820151818401526020810190506135c8565b838111156135f2576000848401525b50505050565b6000613603826135ac565b915060008214156136175761361661369d565b5b600182039050919050565b6000600282049050600182168061363a57607f821691505b6020821081141561364e5761364d6136cc565b5b50919050565b600061365f826135ac565b91507fffffffffffffffffffffffffffffffffffffffffffffffffffffffffffffffff8214156136925761369161369d565b5b600182019050919050565b7f4e487b7100000000000000000000000000000000000000000000000000000000600052601160045260246000fd5b7f4e487b7100000000000000000000000000000000000000000000000000000000600052602260045260246000fd5b6000601f19601f8301169050919050565b7f2165786973740000000000000000000000000000000000000000000000000000600082015250565b7f21676f7665726e616e6365000000000000000000000000000000000000000000600082015250565b7f2165746843616c6c000000000000000000000000000000000000000000000000600082015250565b7f216f776e65722f7370656e6465722f6f70657261746f72000000000000000000600082015250565b7f2166726f6d2f746f2f746f6b656e496400000000000000000000000000000000600082015250565b7f21746f6b656e49642f5f746f6b656e5552490000000000000000000000000000600082015250565b50565b7f2170726963650000000000000000000000000000000000000000000000000000600082015250565b7f216f776e65722f6f70657261746f720000000000000000000000000000000000600082015250565b7f21666f7253616c65000000000000000000000000000000000000000000000000600082015250565b7f2162757965720000000000000000000000000000000000000000000000000000600082015250565b7f216f776e65720000000000000000000000000000000000000000000000000000600082015250565b6138db81613530565b81146138e657600080fd5b50565b6138f281613542565b81146138fd57600080fd5b50565b61390981613554565b811461391457600080fd5b50565b61392081613560565b811461392b57600080fd5b50565b613937816135ac565b811461394257600080fd5b5056fea264697066735822122013bd25079565a0c869a131ff5aa7059ea586e051f350b35e83ff006de1d198b564736f6c63430008010033",
  "linkReferences": {},
  "deployedLinkReferences": {}
}